:020000040000FA
:040000002CEF00F0F1
:060008007282E8ED0AF02F
:100018007280D8CF09F0E8CF0AF0E0CF0BF0D9CF43
:100028000CF0DACF0DF09EAA07D0ABA203D0AB98A4
:1000380000F0AB880EEC0EF00DC0DAFF0CC0D9FF53
:100048000BC0E0FF0AC0E8FF09C0D8FF729010009B
:04005800A3EF0CF016
:1006000000412300432300442300462300472300E6
:0F061000410042004300440045004600470000FF
:100620003850800B416E38503824476E37BE4780B3
:100630004750D8B40DD04728D8A408D0000E356E46
:10064000000E366E000E376E000E386E378E08D0F4
:10065000000E356E000E366E000E376E000E386ED0
:100660003C50800B411A3C503C24426E3BBE4280C1
:100670004250D8B40DD04228D8A408D0000E396E0C
:10068000000E3A6E000E3B6E000E3C6E3B8E08D0A4
:10069000000E396E000E3A6E000E3B6E000E3C6E80
:1006A0004250D8B403D04750D8A409D0000E356EBC
:1006B000000E366E000E376E000E386E12003B5084
:1006C0003502F3CF4CF0F4CF4DF04C50436E446AFA
:1006D000456A466A4D50486E496A4A6A4B6A3A50C2
:1006E0003602F3CF4CF0F4CF4DF04C504326000EC1
:1006F0004422452246224D504826000E49224A22D5
:100700004B2239503702F3CF4CF0F4CF4DF04C5020
:100710004326000E4422452246224D504826000E14
:1007200049224A224B2245C046F044C045F043C00E
:1007300044F0436A39503602F3CF4CF0F4CF4DF019
:100740004C5043264D504422000E4522000E4622B6
:100750003A503502F3CF4CF0F4CF4DF04C504326D5
:100760004D504422000E4522000E462245C046F060
:1007700044C045F043C044F0436A39503502F3CFDA
:100780004CF0F4CF4DF04C5043264D504422000E17
:100790004522000E46223B503602F3CF4CF0F4CFF8
:1007A0004DF04C5048264D504922000E4A22000E72
:1007B0004B223A503702F3CF4CF0F4CF4DF04C506F
:1007C00048264D504922000E4A22000E4B223B5033
:1007D0003702F3CF4CF0F4CF4DF04C503D6E4D50FE
:1007E0003E6E3F6A406A3FC040F03EC03FF03DC0B1
:1007F0003EF03D6A3D5048263E5049223F504A2235
:1008000040504B2243C03DF044C03EF045C03FF055
:1008100046C040F0190E05D0D89040323F323E32EB
:100820003D32E82EF9D73D5048263E5049223F50F0
:100830004A2240504B2245C046F044C045F043C0D8
:1008400044F0436A425047C03DF03E6A3D26000EE8
:100850003E22820E3D244C6EFF0E3E204D6E0FD088
:10086000D890483649364A364B3646BE4880D890EE
:1008700043364436453646364C06D8A04D064AAE79
:10088000EFD7000E426E46AE17D0FF0E43143D6EFA
:10089000FF0E44143E6EFF0E45143F6E7F0E46144D
:1008A000406E3D503E103F104010D8B403D0010EB2
:1008B000426E02D048B0FBD74250D8B41FD0010ED0
:1008C0004826000E49224A224B224BA017D048C08E
:1008D0003DF049C03EF04AC03FF04BC040F04034CC
:1008E00040323F323E323D323DC048F03EC049F0DA
:1008F0003FC04AF040C04BF04C4A4D2A4DBE0DD08F
:100900004D5003E14C28D8A008D0000E486E000ED0
:10091000496E800E4A6E7F0E20D04DBE05D04D50E0
:100920000EE14C04D8B00BD0000E486E000E496E9C
:10093000000E4A6E000E4B6E000E416E0FD04CC082
:1009400047F0FF0E4816FF0E49167F0E4A16000E9E
:100950004B1647B04A8ED89047304B6E41504B12E1
:1009600048C035F049C036F04AC037F04BC038F0C7
:100970001200C8C135F0C9C136F0CAC137F0CBC1C9
:1009800038F0000E396E000E3A6E800E3B6E410E4E
:100990003C6E10EC03F035C04EF036C04FF037C05F
:1009A00050F038C051F0000E266E010E256E160E66
:1009B000276E060E286E000E2A6E040E296EC6C122
:1009C0002BF0C7C12CF0000E2E6E010E2D6E87ECA1
:1009D00008F0000E266E030E256E180E276E060E0A
:1009E000286E000E2A6E040E296EC6C12BF0C7C1F8
:1009F0002CF0000E2E6E010E2D6E87EC08F0000E0E
:100A0000206E000E216E800E226E400E236E4EC0B0
:100A10001CF04FC01DF050C01EF051C01FF034EC50
:100A200006F01CC035F01DC036F01EC037F01FC0E8
:100A300038F002EC0DF035C03FF036C040F08AECE3
:100A40000EF0000E266E010E256E000E286E010EB1
:100A5000276EC8EC0DF0000E266E010E256E040EFA
:100A6000276E060E286E000E2A6E040E296EC6C171
:100A70002BF0C7C12CF0000E2E6E010E2D6E87ECF0
:100A800008F0000E206E000E216E800E226E400EC9
:100A9000236E4EC01CF04FC01DF050C01EF051C060
:100AA0001FF034EC06F01CC035F01DC036F01EC03F
:100AB00037F01FC038F002EC0DF035C03FF036C003
:100AC00040F08AEC0EF0000E266E010E256E000E30
:100AD000286E010E276EC8EC0DF0000E266E010E7A
:100AE000256E120E276E060E286E000E2A6E030E5D
:100AF000296EC6C12BF0C7C12CF0000E2E6E010E60
:100B00002D6E87EC08F0000E206E000E216E800E18
:100B1000226E400E236E4EC01CF04FC01DF050C020
:100B20001EF051C01FF034EC06F01CC035F01DC0A3
:100B300036F01EC037F01FC038F002EC0DF035C0A3
:100B40003FF036C040F08AEC0EF0000E266E010E2B
:100B5000256E000E286E010E276EC8EC0DF0000EFB
:100B6000266E010E256E040E276E060E286E000EF0
:100B70002A6E040E296EC6C12BF0C7C12CF0000EE0
:100B80002E6E010E2D6E87EC08F0000E206E000E0A
:100B9000216E800E226E400E236E4EC01CF04FC0A0
:100BA0001DF050C01EF051C01FF034EC06F01CC008
:100BB00035F01DC036F01EC037F01FC038F002EC13
:100BC0000DF035C03FF036C040F08AEC0EF0000E5C
:100BD000266E010E256E000E286E010E276EC8ECE3
:100BE0000DF0000E266E010E256E100E276E060EFD
:100BF000286E000E2A6E030E296EC6C12BF0C7C1E7
:100C00002CF0000E2E6E010E2D6E87EC08F0000EFB
:100C1000206E000E216E800E226E400E236E4EC09E
:100C20001CF04FC01DF050C01EF051C01FF034EC3E
:100C300006F01CC035F01DC036F01EC037F01FC0D6
:100C400038F002EC0DF035C03FF036C040F08AECD1
:100C50000EF0000E266E010E256E000E286E010E9F
:100C6000276EC8EC0DF012001F50800B2C6E1F5029
:100C70001F24336E1EBE33803350D8B40DD03328BA
:100C8000D8A408D0000E1C6E000E1D6E000E1E6E45
:100C9000000E1F6E1E8E06D0000E1C6E000E1D6E06
:100CA000000E1E6E000E1F6E2350800B2C1A235058
:100CB0002324346E22BE34803450D8B40DD034286E
:100CC000D8A408D0000E206E000E216E000E226EF9
:100CD000000E236E228E06D0000E206E000E216EB6
:100CE000000E226E000E236E2050211022102310C1
:100CF000D8A417D0000E1C6E000E1D6E000E1E6EC6
:100D0000000E1F6E800E1E127F0E1F122C501F121F
:100D10001CC01CF01DC01DF01EC01EF01FC01FF027
:100D200012003350D8A409D0000E1C6E000E1D6EA8
:100D3000000E1E6E000E1F6E1200345033C024F0E1
:100D4000256A245E000E255A7F0E24242D6E000E87
:100D500025202E6E1CC028F01DC029F01EC02AF0D0
:100D60001FC02BF0000E1C6E000E1D6E000E1E6EBE
:100D7000000E1F6E000E2F6E000E306E000E316ED4
:100D8000000E326E000E346E28D03450D8B411D01C
:100D9000D890283629362A362B36D8901C361D3660
:100DA0001E361F3632BE1C80D8902F363036313674
:100DB00032362050285C2150295822502A5823507E
:100DC0002B58D8A009D0328C2050285E2150295AA7
:100DD00022502A5A23502B5A342A190E3464D5D75C
:100DE000285029102A102B10D8B411D02F800FD0E2
:100DF000D8901C361D361E361F3632BE1C80D89049
:100E00002F363036313632362D06D8A02E061EAE9D
:100E1000EFD7000E346E32AE17D0FF0E2F14246EB3
:100E2000FF0E3014256EFF0E3114266E7F0E321425
:100E3000276E2450251026102710D8B403D0010E99
:100E4000346E02D01CB0FBD73450D8B41FD0010E82
:100E50001C26000E1D221E221F221FA017D01CC000
:100E600024F01DC025F01EC026F01FC027F0273437
:100E7000273226322532243224C01CF025C01DF032
:100E800026C01EF027C01FF02D4A2E2A2EBE10D0DD
:100E90002E5003E12D28D8A00BD0000E2E6E2D6809
:100EA000000E1C6E000E1D6E000E1E6E000E1F6EDC
:100EB0002EBE05D02E5011E12D04D8B00ED0000E5C
:100EC0002E6E000E2D6E000E1C6E000E1D6E000E9E
:100ED0001E6E000E1F6E000E2C6E2DC033F033A060
:100EE00002D01E8E01D01E9ED89033301F6E0ED7BA
:100EF0008C8C8A94000E0F6E000E0E6E18C010F0CF
:100F000019C011F0EBEC0DF00E30D8A002D08980A2
:100F100001D08990000E0F6E010E0E6E18C010F0F9
:100F200019C011F0EBEC0DF00E30D8A002D0898280
:100F300001D08992000E0F6E020E0E6E18C010F0D6
:100F400019C011F0EBEC0DF00E30D8A002D089845E
:100F500001D08994000E0F6E030E0E6E18C010F0B3
:100F600019C011F0EBEC0DF00E30D8A002D089863C
:100F700001D08996000E0F6E040E0E6E18C010F090
:100F800019C011F0EBEC0DF00E30D8A002D08A8819
:100F900001D08A98000E0F6E050E0E6E18C010F06C
:100FA00019C011F0EBEC0DF00E30D8A002D08D80FE
:100FB00001D08D90000E0F6E060E0E6E18C010F050
:100FC00019C011F0EBEC0DF00E30D8A002D08D82DC
:100FD00001D08D92000E0F6E070E0E6E18C010F02D
:100FE00019C011F0EBEC0DF00E30D8A002D08A86BB
:100FF00001D08A968C9C00D000F08C8C8C8C8A84DA
:10100000000E0F6E000E0E6E1AC010F01BC011F015
:10101000EBEC0DF00E30D8A002D0898001D0899081
:10102000000E0F6E010E0E6E1AC010F01BC011F0F4
:10103000EBEC0DF00E30D8A002D0898201D089925D
:10104000000E0F6E020E0E6E1AC010F01BC011F0D3
:10105000EBEC0DF00E30D8A002D0898401D0899439
:10106000000E0F6E030E0E6E1AC010F01BC011F0B2
:10107000EBEC0DF00E30D8A002D0898601D0899615
:10108000000E0F6E040E0E6E1AC010F01BC011F091
:10109000EBEC0DF00E30D8A002D08A8801D08A98EF
:1010A000000E0F6E050E0E6E1AC010F01BC011F070
:1010B000EBEC0DF00E30D8A002D08D8001D08D90D9
:1010C000000E0F6E060E0E6E1AC010F01BC011F04F
:1010D000EBEC0DF00E30D8A002D08D8201D08D92B5
:1010E000000E0F6E070E0E6E1AC010F01BC011F02E
:1010F000EBEC0DF00E30D8A002D08A8601D08A9693
:101100008C9C070EE82EFED700F08C8C1200000E8F
:10111000196E0E0E186E000E1B6E000E1A6E78EC15
:1011200007F0000E366E000E356ED8903534D96E4D
:101130003634DA6EC00ED926000EDA222750DE18B9
:1011400017E12850DE18D8A413D036BE0CD0365084
:1011500004E10C0E355CD8A006D0F40E3524356EB3
:10116000FF0E3620366E35C033F036C034F00AD06C
:10117000354A362A36BED9D7365004E10C0E355CD6
:10118000D8A0D3D7100E2524186E000E2620196E75
:10119000D8903334D96E3434DA6ED80ED926000E96
:1011A000DA22DECF1AF0DDCF1BF078EC07F0000E6C
:1011B000386E000E376E37C018F038C019F0000EC8
:1011C0001B6E000E1A6E000E0F6E080E0E6ED8907B
:1011D0003334D96E3434DA6ED80ED926000EDA22C2
:1011E000DECF10F0DDCF11F0EBEC0DF00EC01CF0F7
:1011F0000FC01DF097EC0DF018C037F019C038F093
:1012000037C018F038C019F0000E1B6E010E1A6EB0
:10121000000E0F6E000E0E6E29C010F02AC011F0E5
:10122000EBEC0DF00EC01CF00FC01DF097EC0DF0B4
:1012300018C037F019C038F037C018F038C019F0AE
:10124000000E1B6E020E1A6E000E0F6E010E0E6E59
:1012500029C010F02AC011F0EBEC0DF00EC01CF00C
:101260000FC01DF097EC0DF018C037F019C038F022
:1012700037C018F038C019F0000E1B6E030E1A6E3E
:10128000000E0F6E020E0E6E29C010F02AC011F073
:10129000EBEC0DF00EC01CF00FC01DF097EC0DF044
:1012A00018C037F019C038F037C018F038C019F03E
:1012B000000E1B6E040E1A6E000E1D6E010E1C6ECB
:1012C00097EC0DF018C037F019C038F0200E252427
:1012D000186E000E2620196E37C01AF038C01BF0A9
:1012E00078EC07F02BC02FF02CC030F02F3A303ABA
:1012F000F00E30162F500F0B3012F00E2F162D500F
:101300002F10316E2E503010326E300E2524186E94
:10131000000E2620196E31C01AF032C01BF078EC96
:1013200007F012009380F19E8B96A00ECD6E9E90DA
:10133000000ECF6E000ECE6E000E0101CF6F000EBC
:10134000CE6F00EC0FF081A0FED7000ECF6E000E26
:10135000CE6ECD8081A002D09EA0FCD7CECF68F00B
:10136000CFCF69F0CD9052C035F053C036F054C0A5
:1013700037F055C038F002EC0DF0000E206E000E74
:10138000216EEA0E226E420E236E68C00EF069C016
:101390000FF0000E0FBEFF0E106E116E010E48EC26
:1013A0000AF00EC01CF00FC01DF010C01EF011C0DE
:1013B0001FF034EC06F01CC035F01DC036F01EC026
:1013C00037F01FC038F0000E396E000E3A6E000E76
:1013D0003B6E400E3C6E10EC03F035C052F036C050
:1013E00053F037C054F038C055F0000E0E6E000EAA
:1013F0000F6E800E106E3F0E116E52C012F053C071
:1014000013F054C014F055C015F075EC0BF0D8B0C3
:1014100030D052C00EF053C00FF054C010F055C081
:1014200011F0000E126E000E136E400E146E400E80
:10143000156E75EC0BF0D8B01CD00101CE51CF1158
:10144000D8A41CD0000ECF6F010ECE6F000EC56F5A
:10145000030EC46F000EC76F030EC66F000EC86F79
:10146000000EC96F800ECA6F3F0ECB6FB9EC04F04F
:1014700005D0000E0101CF6F000ECE6F410E0001AE
:10148000FE6FEE0EE82EFED7FE2FFCD700F059D7E8
:10149000166E1650D8A411AE1AD00EC012F00FC09E
:1014A00013F010C014F011C015F0121E131E141EFC
:1014B000151E122A000E13221422152212C018F033
:1014C00013C019F014C01AF015C01BF008D00EC0DC
:1014D00018F00FC019F010C01AF011C01BF00E5018
:1014E0000F1010101110D8A409D0000E0E6E000EAF
:1014F0000F6E000E106E000E116E1200960E176E1B
:1015000006D0172AD8901B321A3219321832000E20
:101510001814126E000E1914136E000E1A14146EA5
:10152000FE0E1B14156E1250131014101510D8B4A3
:101530000DD0E7D7172A010E1826000E19221A22FD
:101540001B22D8901B321A3219321832000E18148E
:10155000126E000E1914136E000E1A14146EFF0E84
:101560001B14156E1250131014101510D8B407D098
:10157000E1D71706D890183619361A361B361ABE18
:1015800003D0020E1760F5D717A01A9ED890173215
:1015900017C012F0136A146A156A12C015F0146AA3
:1015A000136A126A125018121350191214501A1298
:1015B00015501B121650D8A411AE01D01B8E18C0A6
:1015C0000EF019C00FF01AC010F01BC011F012007D
:1015D0000600D9CF01F0DACF02F0F0A047D0010E1B
:1015E0006224626E000E6320636E63BE0AD0635095
:1015F00004E1030E625CD8A004D0000E636E000EFE
:10160000626E62506310D8A407D0000E616E000EA7
:10161000606ED59EF29A21D062046310D8A41FD0C8
:10162000000E616E000E606E000E596E000E586E58
:1016300059BE06D0F40E585C010E5958D8B00BD0E4
:10164000C80E5824D96E020E5920DA6E000EDF6ED5
:10165000584A592AEDD7D58EF28A948206D0000EC8
:10166000616E000E606ED58EF28AF090F2A437D0D3
:10167000F30ED76ECA0ED66EF29462046310D8A42D
:1016800010D0010E6024606E000E6120616EF30EBA
:10169000601807E16104D8A404D0010E616EF30E56
:1016A000606E020E62186310D8A419D0010E602477
:1016B000606E000E6120616EF30E601807E1610438
:1016C000D8A404D0000E616E000E606EC80E6024B7
:1016D000D96E020E6120DA6EDF50D8B4948202C057
:1016E000DAFF01C0D9FF72921100000E0E14166EBF
:1016F000000E0F14176E800E1014186E7F0E11144A
:10170000196E1650171018101910D8A408D0000E12
:101710000E6E000E0F6E000E106E000E116E000E9B
:101720001214166E000E1314176E800E1414186E19
:101730007F0E1514196E1650171018101910D8A412
:1017400008D0000E126E000E136E000E146E000E06
:10175000156E11AE09D00E6C0F1ED8B00F2A101ED8
:10176000D8B0102A800E115615AE09D0126C131E77
:10177000D8B0132A141ED8B0142A800E1556000EA5
:101780000E1A000E0F1A000E101A800E111A000EFB
:10179000121A000E131A000E141A800E151A125087
:1017A0000E5C13500F581450105815501158D8B0E3
:1017B00002D0D8901200D880120004000400080063
:1017C00004000400080004000400040004000400F5
:1017D00004000800040004000800040004000800DD
:1017E00004000400040004001000040004000400CD
:1017F00004000400040008000400040004000400C5
:1018000004000400080004000400080004000400B0
:1018100008000400040004000400080000008D001B
:1018200069007E007E0077008D008D009E008D0097
:101830007E00770069006900690069007E007E0013
:1018400077008D008D009E007E00690069007E009B
:101850008D008D008D008D008D007E0077007E0054
:101860007E007E007E007E007700690069007E00B9
:101870007E0077008D008D009E007E00690069006B
:101880009E00040004000800040004000800040096
:10189000040004000400100004000400040004001C
:1018A0000400040004000400040004000400040018
:1018B00008000800040004000800040004000800F8
:1018C00004000400040004001000040004000400EC
:1018D00004000400040004000400040004000400E8
:1018E000040008007E007E007E007E007E007E00F8
:1018F0007E0069009E008D007E00770077007700F3
:10190000770077007E007E007E007E008D008D00D7
:101910007E008D0069007E007E007E007E007E00DD
:101920007E007E0069009E008D007E0077007700BB
:101930007700770077007E007E007E0069006900F6
:1019400077008D009E00BA0EF66E170EF76E000E31
:10195000F86E02EE00F010EEC8F00900F5CFEEFFD1
:10196000E550E150FAE1820EF66E180EF76E000EA9
:10197000F86E01EE00F010EEC4F00900F5CFEEFFB6
:10198000E550E150FAE1600EF66E1C0EF76E000EA7
:10199000F86E00EEC0F010EE3EF00900F5CFEEFF5D
:1019A000E550E150FAE12A0EF66E1E0EF76E000EBB
:1019B000F86E00EE6EF010EE04F00900F5CFEEFFC9
:1019C000E550E150FAE102EEC8F011EEF4F0EE6AF3
:1019D000E550E150FCE1E250FAE100EE80F0400E0B
:1019E000EE6AE806FDE100EE52F01C0EEE6AE80633
:1019F000FDE172907292000EF86E060EF76E000115
:101A00004FEF0EF0373438343E6E3E50D8A409D034
:101A1000000E356E000E366E000E376E000E386EFC
:101A2000120035C039F036C03AF037C03BF038C04C
:101A30003CF0200E05D0D8903C323B323A3239325D
:101A4000E82EF9D739503D6E378EFF0E3516FF0E52
:101A50003616FF0E3716000E3816960E3E5E3EAE58
:101A60000DD03E50800A970FD8A0D2D7D8903832E8
:101A70003732363235323E3EF9D70DD01F0E3E6436
:101A800007D0C6D7D89035363636373638363E0684
:101A90003E50D8A4F7D73D50D8B408D0381E371ED2
:101AA000361E356C000E36223722382235C035F00E
:101AB00036C036F037C037F038C038F01200000EAC
:101AC000086E04AE06D0036C041ED8B0042A010EC2
:101AD000086E06AE04D0056C061ED8B0062A055066
:101AE0000610D8B418D0010E076E04D0D890053671
:101AF0000636072A06AEFAD70550035C065004588E
:101B0000D8A004D00550035E0650045AD89006327F
:101B10000532072EF1D70850D8B404D0036C041E48
:101B2000D8B0042A03C003F004C004F012001AC0A5
:101B30001EF0010E1F6E000E206E1E2A03D0D890DC
:101B40001F3620361E2EFBD71FC023F020C024F0E6
:101B50001AC01EF01CC01FF01DC020F01E2A03D0AA
:101B6000D8901F3620361E2EFBD723501F16245028
:101B70002016231C216E241C226E18502116195089
:101B800022161F502110186E20502210196E1200BC
:101B9000000E2A6E000E296E29C018F02AC019F016
:101BA000000E1B6E050E1A6E27C01CF028C01DF01B
:101BB00097EC0DF018C029F019C02AF0200E25244A
:101BC000186E000E2620196E29C01AF02AC01BF0CC
:101BD00078EC07F012000EC012F00EC013F0010EE8
:101BE000146E000E156E132A03D0D89014361536D5
:101BF000132EFBD71050141611501516122A03D0AD
:101C0000153415321432122EFBD714C016F015C03D
:101C100017F016C00EF017C00FF01200B60E6A24AF
:101C2000D96E000E6B20DA6EAECFDFFFB60E6A24DF
:101C3000D96E000E6B20DA6EDF5007EC0FF06A4AA7
:101C40006B2A6AC003F06BC004F0000E066E0A0E29
:101C5000056E5FEC0DF003C06AF004C06BF012007B
:101C6000140604061606070618061A060A061C06B7
:101C70000D06100601061206AC00B500C000CC002F
:101C8000D800E500F20001011001200131014301FB
:101C9000C0F9A4B0999282D8809004001400000E7C
:101CA000956E8C6800F0B1EC0EF093829592F19AEB
:101CB000F086F090F30ED76ECA0ED66E840ED56EF7
:101CC000CF0ED76E2B0ED66EF294010E8C6ED3EC27
:101CD0000EF06EEC0EF092EC09F0FBD79394959A0F
:101CE000959C959E929092929294929693989690AB
:101CF0009692939695989592959495968C8C8C9AAD
:101D00008C9E820E0E6EDE0EE82EFED70E2EFCD7B7
:101D10008C8E1200840ED56E3FC00EF040C00FF0C6
:101D2000090E116E600E106E9EEC0EF00E1CD66E3B
:101D30000F1CD76EF294F2B41200FDD70E501002B1
:101D4000F3CF12F0F4CF13F00E501102F35013261C
:101D50000F501002F350132612C00EF013C00FF0F4
:101D600012000DEC0FF0F8EC0EF0E0EC0EF017ECBA
:101D70000FF011EC0FF0C2EC0EF018EC0FF0EDECE0
:101D80000EF01200948C948EAC98B896AC84190E18
:101D9000AF6EAB8E9E889E9AAC8AAB889D989F98BA
:101DA0009D8A9F9A120092909490949494969498FD
:101DB000949A949C949E92929592959495961200E2
:101DC000B19CB196B18AB188B192B180A282A19240
:101DD000EA0EB36E600EB26E120092680E0EC16E05
:101DE000C08E070EC012000EC46E000EC36E12002D
:101DF000070ECA6E3C0EBD6E9494310ECB6E12006F
:101E00008B86030EE82EFED700F08B961200036E31
:101E1000ACA2FED703C0ADFF1200D38CD38AD398F7
:101E20001200D08EF28EF28C12000100010012001E
:021E300012009E
:020000040020DA
:08000000FFFFFFFFFFFFFFFF00
:020000040030CA
:0E000000FF881F00FF8381FF0FC00FE00F403D
:00000001FF
